:100000000C942A000C9447000C9447000C94470071
:100010000C9447000C9447000C9447000C94470044
:100020000C9447000C9447000C9447000C94470034
:100030000C9447000C94B2030C940A040C94E10352
:100040000C94CA010C9447000C9447000C94470090
:100050000C94470011241FBECFE5D8E0DEBFCDBF12
:1000600010E0A0E6B0E0EEE3FCE002C005900D92E7
:10007000A039B107D9F720E0A0E9B0E001C01D9296
:10008000AD39B207E1F70E94C5010C941D060C942E
:1000900000006091900086E790E00E94330180911B
:1000A00090000E94AD03089586E790E00E94D3007F
:1000B00086E690E00E947D0180E690E00E946D035C
:1000C00061E486E790E00E943301089580E990E0C2
:1000D0000E94A30308951F93CF93DF93EC01162F83
:1000E000462F4170698588850E94170211FB4427BD
:1000F00040F96D858C850E94170212FB442740F958
:10010000698988890E94170213FB442740F96D8989
:100110008C890E941702DF91CF911F910895CF9390
:10012000DF93EC01698141E088810E9417028DE034
:100130008A95F1F70000698140E088810E941702EA
:10014000EFE9FFE03197F1F700C00000DF91CF91B8
:100150000895EF92FF921F93CF93DF930097E1F002
:10016000162FEC01698140E088810E941702612FFF
:1001700062956F70CE010E946B007E0184E0E80EF4
:10018000F11CC7010E948F00612FCE010E946B00FD
:10019000C7010E948F0001C081E0DF91CF911F91C4
:1001A000FF90EF9008951F93CF93DF93009709F48A
:1001B00041C0EC0111E01A831B820E941D031E83C3
:1001C0001F82CE0104960E941D0310E016C0812FED
:1001D00090E0FC01EE0FFF1FEE0FFF1FEC0FFD1F65
:1001E00021E0228713860296880F991F880F991F96
:1001F0008C0F9D1F0E941D031F5F143040F38FE37F
:100200009CE90197F1F700C0000062E0CE010E9476
:10021000A90068E2CE010E94A9006CE0CE010E9414
:10022000A90066E0CE010E94A90061E0CE010E9413
:10023000A90001C081E0DF91CF911F910895FC01D9
:10024000418F608F613019F0623031F00AC06FE782
:10025000640F0E94A90008956FEB640F0E94A9002B
:10026000089580E00895EF92FF921F93CF93DF935C
:100270000097E1F1162FEC01888D813061F4998DA2
:10028000913148F0898F82E0888F41E062E0CE01B1
:100290000E941F0111C0823061F4898D813148F0C4
:1002A00081E0898F888F41E061E0CE010E941F01CB
:1002B00003C0898D8F5F898F698141E088810E94A9
:1002C0001702612F62956F70CE010E946B007E0154
:1002D00084E0E80EF11CC7010E948F00612FCE015F
:1002E0000E946B00C7010E948F0001C081E0DF9176
:1002F000CF911F91FF90EF900895FF920F931F935E
:10030000CF93DF9300D000D0CDB7DEB7009791F147
:100310008C01F12C80E012C081E08B831C82EF2DD8
:10032000F0E0EE0FFF1FE00FF11F808189838181D4
:100330008A83CE0101960E941D03F39493E09F15DA
:1003400058F7F12C13C02F2D30E0F901EE0FFF1FED
:10035000E00FF11F6185F9013496EE0FFF1FE00FEA
:10036000F11F40E080810E949A02F39493E09F1570
:1003700050F701C081E00F900F900F900F90DF9128
:10038000CF911F910F91FF9008950E9454000E94F9
:100390006600FDCF1F920F920FB60F9211242F937C
:1003A0003F934F935F936F937F938F939F93AF93FD
:1003B000BF93CF93DF93EF93FF9384B195B160E048
:1003C000792F680F711D7093960060939500C0910E
:1003D0009300D091940080E090E00E94220520E0FC
:1003E00030E040EA50E40E94B00520E030E040E810
:1003F0005AE30E94B005688379838A839B83E091E6
:100400009100F09192000995FF91EF91DF91CF91CA
:10041000BF91AF919F918F917F916F915F914F911C
:100420003F912F910F900FBE0F901F90189568303D
:1004300008F078C04130C1F5813091F028F0823069
:10044000D9F0833029F170C02BB381E090E002C075
:10045000880F991F6A95E2F7822B8BBB80E0089585
:1004600028B381E090E002C0880F991F6A95E2F7F7
:10047000822B88BB80E0089525B381E090E002C024
:10048000880F991F6A95E2F7822B85BB80E008955B
:1004900022B381E090E002C0880F991F6A95E2F7CD
:1004A000822B82BB80E00895411140C0813099F0D9
:1004B00028F08230E9F0833041F13AC02BB381E07B
:1004C00090E002C0880F991F6A95E2F78095822319
:1004D0008BBB80E0089528B381E090E002C0880FD4
:1004E000991F6A95E2F78095822388BB80E0089582
:1004F00025B381E090E002C0880F991F6A95E2F76A
:100500008095822385BB80E0089522B381E090E04E
:1005100002C0880F991F6A95E2F78095822382BBFB
:1005200080E0089583E0089582E0089585E00895CD
:1005300082E00895683008F078C04130C1F581301C
:1005400091F028F08230D9F0833029F170C02AB3BD
:1005500081E090E002C0880F991F6A95E2F7822B34
:100560008ABB80E0089527B381E090E002C0880F45
:10057000991F6A95E2F7822B87BB80E0089524B328
:1005800081E090E002C0880F991F6A95E2F7822B04
:1005900084BB80E0089521B381E090E002C0880F21
:1005A000991F6A95E2F7822B81BB80E00895411183
:1005B00040C0813099F028F08230E9F0833041F179
:1005C0003AC02AB381E090E002C0880F991F6A9573
:1005D000E2F7809582238ABB80E0089527B381E00B
:1005E00090E002C0880F991F6A95E2F780958223F8
:1005F00087BB80E0089524B381E090E002C0880FBB
:10060000991F6A95E2F78095822384BB80E0089564
:1006100021B381E090E002C0880F991F6A95E2F74C
:100620008095822381BB80E0089583E0089582E075
:10063000089584E0089582E00895CF93DF930097B2
:1006400061F0EC014A81698188810E949A024B81A4
:10065000698188810E94170201C081E0DF91CF91FA
:10066000089520B52F7720BDBC0180E090E00E9466
:10067000220520E030E040E851E40E94B0059B01F3
:10068000AC0160E074E284EF9AE40E94810420E00F
:1006900030E040E85FE30E9414040E94F30469B96B
:1006A000BB27A92F982F872F80BD08952FB72068CB
:1006B0002FBF2AB120682AB9FC01208131813093F3
:1006C0009A00209399002AB120642AB982819381EB
:1006D00090939800809397000895CF93DF930097AD
:1006E00071F1EC018C819D810E94310380B580689D
:1006F00080BD80B58F7B80BD80B58F7E80BD80B58D
:100700008F7D80BD8BB18D7F8BB98BB18E7F8BB987
:1007100080B5826080BD80B5846080BD8AB18B7FEA
:100720008AB980B5877F80BD8AB180618AB98AB174
:1007300088608AB9CE010E94560380E001C081E042
:10074000DF91CF910895009731F090939C008093B2
:100750009B0080E0089581E008955D9BFECF8CB9F9
:1007600080E008951F920F920FB60F9211242F93DD
:100770003F934F935F936F937F938F939F93AF9329
:10078000BF93EF93FF93E0919B00F0919C008CB19D
:100790008083E0919900F0919A00309709F00995D3
:1007A000FF91EF91BF91AF919F918F917F916F9149
:1007B0005F914F913F912F910F900FBE0F901F901F
:1007C00018951F920F920FB60F9211242F933F93FB
:1007D0004F935F936F937F938F939F93AF93BF9349
:1007E000EF93FF93E0919700F0919800309709F014
:1007F0000995FF91EF91BF91AF919F918F917F915B
:100800006F915F914F913F912F910F900FBE0F907D
:100810001F9018951F920F920FB60F9211240F90F0
:100820000FBE0F901F9018955058BB27AA270E9403
:100830002C040C9476050E94680538F00E946F0520
:1008400020F039F49F3F19F426F40C9465050EF45A
:10085000E095E7FB0C945F05E92F0E94870558F3AC
:10086000BA17620773078407950720F079F4A6F595
:100870000C94A9050EF4E0950B2EBA2FA02D0B01B8
:10088000B90190010C01CA01A0011124FF27591BD5
:1008900099F0593F50F4503E68F11A16F040A22FDB
:1008A000232F342F4427585FF3CF4695379527954C
:1008B000A795F0405395C9F77EF41F16BA0B620B4B
:1008C000730B840BBAF09150A1F0FF0FBB1F661F92
:1008D000771F881FC2F70EC0BA0F621F731F841FD5
:1008E00048F4879577956795B795F7959E3F08F0FB
:1008F000B0CF9395880F08F09927EE0F97958795BD
:1009000008950E9495040C9476050E946F0558F096
:100910000E94680540F029F45F3F29F00C945F05C0
:1009200051110C94AA050C9465050E94870568F383
:100930009923B1F3552391F3951B550BBB27AA2798
:1009400062177307840738F09F5F5F4F220F331FD2
:10095000441FAA1FA9F335D00E2E3AF0E0E832D09A
:1009600091505040E695001CCAF72BD0FE2F29D09D
:10097000660F771F881FBB1F261737074807AB076F
:10098000B0E809F0BB0B802DBF01FF2793585F4FE4
:100990003AF09E3F510578F00C945F050C94AA053F
:1009A0005F3FE4F3983ED4F3869577956795B795C6
:1009B000F7959F5FC9F7880F911D9695879597F9D1
:1009C0000895E1E0660F771F881FBB1F621773074A
:1009D0008407BA0720F0621B730B840BBA0BEE1F5F
:1009E00088F7E09508950E948F0588F09F5798F04A
:1009F000B92F9927B751B0F0E1F0660F771F881F24
:100A0000991F1AF0BA95C9F714C0B13091F00E943D
:100A1000A905B1E008950C94A905672F782F8827C0
:100A2000B85F39F0B93FCCF3869577956795B39564
:100A3000D9F73EF490958095709561957F4F8F4FD3
:100A40009F4F0895E89409C097FB3EF490958095D8
:100A5000709561957F4F8F4F9F4F9923A9F0F92F84
:100A600096E9BB279395F695879577956795B79502
:100A7000F111F8CFFAF4BB0F11F460FF1BC06F5FE8
:100A80007F4F8F4F9F4F16C0882311F096E911C0FA
:100A9000772321F09EE8872F762F05C0662371F01B
:100AA00096E8862F70E060E02AF09A95660F771F2F
:100AB000881FDAF7880F9695879597F9089597F923
:100AC0009F6780E870E060E008959FEF80EC0895F4
:100AD00000240A941616170618060906089500241D
:100AE0000A9412161306140605060895092E039497
:100AF000000C11F4882352F0BB0F40F4BF2B11F40B
:100B000060FF04C06F5F7F4F8F4F9F4F089557FD69
:100B10009058440F551F59F05F3F71F04795880F6B
:100B200097FB991F61F09F3F79F087950895121602
:100B300013061406551FF2CF4695F1DF08C01616AE
:100B400017061806991FF1CF86957105610508945F
:100B50000895E894BB2766277727CB0197F9089576
:100B60000E94C3050C9476050E94680538F00E9427
:100B70006F0520F0952311F00C945F050C9465052A
:100B800011240C94AA050E94870570F3959FC1F368
:100B9000950F50E0551F629FF001729FBB27F00D2B
:100BA000B11D639FAA27F00DB11DAA1F649F662780
:100BB000B00DA11D661F829F2227B00DA11D621FCF
:100BC000739FB00DA11D621F839FA00D611D221F89
:100BD000749F3327A00D611D231F849F600D211D6D
:100BE000822F762F6A2F11249F5750409AF0F1F0F0
:100BF00088234AF0EE0FFF1FBB1F661F771F881F59
:100C000091505040A9F79E3F510580F00C945F052C
:100C10000C94AA055F3FE4F3983ED4F3869577954C
:100C20006795B795F795E7959F5FC1F7FE2B880FFE
:0E0C3000911D9695879597F90895F894FFCF3A
:100C3E0049000000802501000101010201030104A9
:100C4E000105010601070303000003020000020470
:100C5E00000002050000020600000207000001016C
:00000001FF
